{
  "contracts/Credential.sol": {
    "CredentialContract": {
      "abi": [
        {
          "inputs": [
            {
              "internalType": "address",
              "name": "registryAddress",
              "type": "address"
            }
          ],
          "stateMutability": "nonpayable",
          "type": "constructor"
        },
        {
          "inputs": [
            {
              "internalType": "bytes32",
              "name": "credentialHash",
              "type": "bytes32"
            }
          ],
          "name": "CredentialAlreadyExists",
          "type": "error"
        },
        {
          "inputs": [
            {
              "internalType": "bytes32",
              "name": "credentialHash",
              "type": "bytes32"
            }
          ],
          "name": "CredentialAlreadyRevoked",
          "type": "error"
        },
        {
          "inputs": [
            {
              "internalType": "bytes32",
              "name": "credentialHash",
              "type": "bytes32"
            }
          ],
          "name": "CredentialNotFound",
          "type": "error"
        },
        {
          "inputs": [],
          "name": "NotAuthorizedIssuer",
          "type": "error"
        },
        {
          "inputs": [],
          "name": "NotCredentialHolder",
          "type": "error"
        },
        {
          "inputs": [],
          "name": "NotCredentialIssuer",
          "type": "error"
        },
        {
          "inputs": [],
          "name": "ZeroAddress",
          "type": "error"
        },
        {
          "anonymous": false,
          "inputs": [
            {
              "indexed": true,
              "internalType": "bytes32",
              "name": "credentialHash",
              "type": "bytes32"
            },
            {
              "indexed": true,
              "internalType": "address",
              "name": "issuer",
              "type": "address"
            },
            {
              "indexed": true,
              "internalType": "address",
              "name": "holder",
              "type": "address"
            }
          ],
          "name": "CredentialIssued",
          "type": "event"
        },
        {
          "anonymous": false,
          "inputs": [
            {
              "indexed": true,
              "internalType": "bytes32",
              "name": "credentialHash",
              "type": "bytes32"
            },
            {
              "indexed": true,
              "internalType": "address",
              "name": "issuer",
              "type": "address"
            }
          ],
          "name": "CredentialRevoked",
          "type": "event"
        },
        {
          "anonymous": false,
          "inputs": [
            {
              "indexed": true,
              "internalType": "bytes32",
              "name": "credentialHash",
              "type": "bytes32"
            },
            {
              "indexed": true,
              "internalType": "address",
              "name": "holder",
              "type": "address"
            },
            {
              "indexed": true,
              "internalType": "address",
              "name": "verifier",
              "type": "address"
            }
          ],
          "name": "VerifierAccessGranted",
          "type": "event"
        },
        {
          "anonymous": false,
          "inputs": [
            {
              "indexed": true,
              "internalType": "bytes32",
              "name": "credentialHash",
              "type": "bytes32"
            },
            {
              "indexed": true,
              "internalType": "address",
              "name": "holder",
              "type": "address"
            },
            {
              "indexed": true,
              "internalType": "address",
              "name": "verifier",
              "type": "address"
            }
          ],
          "name": "VerifierAccessRevoked",
          "type": "event"
        },
        {
          "inputs": [
            {
              "internalType": "bytes32",
              "name": "credentialHash",
              "type": "bytes32"
            },
            {
              "internalType": "address",
              "name": "verifier",
              "type": "address"
            }
          ],
          "name": "grantVerifierAccess",
          "outputs": [],
          "stateMutability": "nonpayable",
          "type": "function"
        },
        {
          "inputs": [
            {
              "internalType": "address",
              "name": "holder",
              "type": "address"
            },
            {
              "internalType": "bytes32",
              "name": "credentialHash",
              "type": "bytes32"
            }
          ],
          "name": "issueCredential",
          "outputs": [],
          "stateMutability": "nonpayable",
          "type": "function"
        },
        {
          "inputs": [],
          "name": "registry",
          "outputs": [
            {
              "internalType": "contract IRegistry",
              "name": "",
              "type": "address"
            }
          ],
          "stateMutability": "view",
          "type": "function"
        },
        {
          "inputs": [
            {
              "internalType": "bytes32",
              "name": "credentialHash",
              "type": "bytes32"
            }
          ],
          "name": "revokeCredential",
          "outputs": [],
          "stateMutability": "nonpayable",
          "type": "function"
        },
        {
          "inputs": [
            {
              "internalType": "bytes32",
              "name": "credentialHash",
              "type": "bytes32"
            },
            {
              "internalType": "address",
              "name": "verifier",
              "type": "address"
            }
          ],
          "name": "revokeVerifierAccess",
          "outputs": [],
          "stateMutability": "nonpayable",
          "type": "function"
        },
        {
          "inputs": [
            {
              "internalType": "bytes32",
              "name": "credentialHash",
              "type": "bytes32"
            }
          ],
          "name": "verifyCredential",
          "outputs": [
            {
              "internalType": "bool",
              "name": "valid",
              "type": "bool"
            },
            {
              "internalType": "string",
              "name": "reason",
              "type": "string"
            }
          ],
          "stateMutability": "view",
          "type": "function"
        }
      ],
      "evm": {
        "bytecode": {
          "linkReferences": {},
          "object": "60a060405234801561001057600080fd5b5060405161094a38038061094a83398101604081905261002f91610067565b6001600160a01b0381166100565760405163d92e233d60e01b815260040160405180910390fd5b6001600160a01b0316608052610097565b60006020828403121561007957600080fd5b81516001600160a01b038116811461009057600080fd5b9392505050565b60805161088b6100bf60003960008181609601528181610198015261032a015261088b6000f3fe608060405234801561001057600080fd5b50600436106100625760003560e01c80634dbf87cc146100675780637b10399914610091578063b4e5a8de146100d0578063ca6eec78146100e5578063d9bfff9a146100f8578063f4c7659c1461010b575b600080fd5b61007a610075366004610748565b61011e565b604051610088929190610761565b60405180910390f35b6100b87f000000000000000000000000000000000000000000000000000000000000000081565b6040516001600160a01b039091168152602001610088565b6100e36100de3660046107d6565b610315565b005b6100e36100f3366004610748565b6104df565b6100e3610106366004610800565b610590565b6100e3610119366004610800565b61064c565b600081815260208190526040812060038101546060919083036101745760006040518060400160405280601481526020017310dc9959195b9d1a585b081b9bdd08199bdd5b9960621b8152509250925050915091565b6001810154604051632d33d7d560e01b81526001600160a01b0391821660048201527f000000000000000000000000000000000000000000000000000000000000000090911690632d33d7d590602401602060405180830381865afa1580156101e1573d6000803e3d6000fd5b505050506040513d601f19601f82011682018060405250810190610205919061082c565b61024b5760006040518060400160405280601b81526020017f497373756572206e6f206c6f6e676572207265676973746572656400000000008152509250925050915091565b6002810154600160a01b900460ff16156102965760006040518060400160405280601281526020017110dc9959195b9d1a585b081c995d9bdad95960721b8152509250925050915091565b600084815260016020908152604080832033845290915290205460ff166102f95760006040518060400160405280602081526020017f43616c6c6572206e6f7420696e20766572696669657220616c6c6f776c6973748152509250925050915091565b6001604051806020016040528060008152509250925050915091565b604051632d33d7d560e01b81523360048201527f00000000000000000000000000000000000000000000000000000000000000006001600160a01b031690632d33d7d590602401602060405180830381865afa158015610379573d6000803e3d6000fd5b505050506040513d601f19601f8201168201806040525081019061039d919061082c565b6103ba576040516306aaf4f160e31b815260040160405180910390fd5b6001600160a01b0382166103e15760405163d92e233d60e01b815260040160405180910390fd5b60008181526020819052604090206003015415610419576040516343edda8360e11b8152600481018290526024015b60405180910390fd5b6040805160a0810182528281523360208083018281526001600160a01b038781168587018181526000606088018181524260808a019081528b8352968290528982209851895594516001890180549186166001600160a01b0319909216919091179055905160028801805495511515600160a01b026001600160a81b031990961691909416179390931790915591516003909401939093559251909184917f2ca620382cc7dc0c7e3dec8ad0cccc7346c771f0e2130ed0cb76c3152c15b2739190a45050565b60006104ea8261070d565b60018101549091506001600160a01b0316331461051a57604051631950461b60e21b815260040160405180910390fd5b6002810154600160a01b900460ff161561054a5760405163aac64f4560e01b815260048101839052602401610410565b60028101805460ff60a01b1916600160a01b179055604051339083907fd3196f598a360c115a1de20d5a58021203793f1bf1a08efe55ee14545779606d90600090a35050565b600061059b8361070d565b60028101549091506001600160a01b031633146105cb57604051637575188f60e01b815260040160405180910390fd5b6001600160a01b0382166105f25760405163d92e233d60e01b815260040160405180910390fd5b60008381526001602090815260408083206001600160a01b0386168085529252808320805460ff19169055519091339186917fbb360e8c35477bb8a008c13e72340c278d279a094c999206a0525848e9d654b191a4505050565b60006106578361070d565b60028101549091506001600160a01b0316331461068757604051637575188f60e01b815260040160405180910390fd5b6001600160a01b0382166106ae5760405163d92e233d60e01b815260040160405180910390fd5b60008381526001602081815260408084206001600160a01b0387168086529252808420805460ff191690931790925590519091339186917fa0708f1b2280d5be95f9b0d433be817b3d729cf41c68b8935f8f85c90235be0091a4505050565b60008181526020819052604081206003810154820361074257604051630d99a0d160e01b815260048101849052602401610410565b92915050565b60006020828403121561075a57600080fd5b5035919050565b82151581526000602060406020840152835180604085015260005b818110156107985785810183015185820160600152820161077c565b506000606082860101526060601f19601f830116850101925050509392505050565b80356001600160a01b03811681146107d157600080fd5b919050565b600080604083850312156107e957600080fd5b6107f2836107ba565b946020939093013593505050565b6000806040838503121561081357600080fd5b82359150610823602084016107ba565b90509250929050565b60006020828403121561083e57600080fd5b8151801515811461084e57600080fd5b939250505056fea26469706673582212208658608e4ba68b2d6a2cbdd6c61560d96f9712ff84aa1808ac16490e5e6784a964736f6c63430008180033",
          "opcodes": "PUSH1 0xA0 PUSH1 0x40 MSTORE CALLVALUE DUP1 ISZERO PUSH2 0x10 JUMPI PUSH1 0x0 DUP1 REVERT JUMPDEST POP PUSH1 0x40 MLOAD PUSH2 0x94A CODESIZE SUB DUP1 PUSH2 0x94A DUP4 CODECOPY DUP2 ADD PUSH1 0x40 DUP2 SWAP1 MSTORE PUSH2 0x2F SWAP2 PUSH2 0x67 JUMP JUMPDEST PUSH1 0x1 PUSH1 0x1 PUSH1 0xA0 SHL SUB DUP2 AND PUSH2 0x56 JUMPI PUSH1 0x40 MLOAD PUSH4 0xD92E233D PUSH1 0xE0 SHL DUP2 MSTORE PUSH1 0x4 ADD PUSH1 0x40 MLOAD DUP1 SWAP2 SUB SWAP1 REVERT JUMPDEST PUSH1 0x1 PUSH1 0x1 PUSH1 0xA0 SHL SUB AND PUSH1 0x80 MSTORE PUSH2 0x97 JUMP JUMPDEST PUSH1 0x0 PUSH1 0x20 DUP3 DUP5 SUB SLT ISZERO PUSH2 0x79 JUMPI PUSH1 0x0 DUP1 REVERT JUMPDEST DUP2 MLOAD PUSH1 0x1 PUSH1 0x1 PUSH1 0xA0 SHL SUB DUP2 AND DUP2 EQ PUSH2 0x90 JUMPI PUSH1 0x0 DUP1 REVERT JUMPDEST SWAP4 SWAP3 POP POP POP JUMP JUMPDEST PUSH1 0x80 MLOAD PUSH2 0x88B PUSH2 0xBF PUSH1 0x0 CODECOPY PUSH1 0x0 DUP2 DUP2 PUSH1 0x96 ADD MSTORE DUP2 DUP2 PUSH2 0x198 ADD MSTORE PUSH2 0x32A ADD MSTORE PUSH2 0x88B PUSH1 0x0 RETURN INVALID PUSH1 0x80 PUSH1 0x40 MSTORE CALLVALUE DUP1 ISZERO PUSH2 0x10 JUMPI PUSH1 0x0 DUP1 REVERT JUMPDEST POP PUSH1 0x4 CALLDATASIZE LT PUSH2 0x62 JUMPI PUSH1 0x0 CALLDATALOAD PUSH1 0xE0 SHR DUP1 PUSH4 0x4DBF87CC EQ PUSH2 0x67 JUMPI DUP1 PUSH4 0x7B103999 EQ PUSH2 0x91 JUMPI DUP1 PUSH4 0xB4E5A8DE EQ PUSH2 0xD0 JUMPI DUP1 PUSH4 0xCA6EEC78 EQ PUSH2 0xE5 JUMPI DUP1 PUSH4 0xD9BFFF9A EQ PUSH2 0xF8 JUMPI DUP1 PUSH4 0xF4C7659C EQ PUSH2 0x10B JUMPI JUMPDEST PUSH1 0x0 DUP1 REVERT JUMPDEST PUSH2 0x7A PUSH2 0x75 CALLDATASIZE PUSH1 0x4 PUSH2 0x748 JUMP JUMPDEST PUSH2 0x11E JUMP JUMPDEST PUSH1 0x40 MLOAD PUSH2 0x88 SWAP3 SWAP2 SWAP1 PUSH2 0x761 JUMP JUMPDEST PUSH1 0x40 MLOAD DUP1 SWAP2 SUB SWAP1 RETURN JUMPDEST PUSH2 0xB8 PUSH32 0x0 DUP2 JUMP JUMPDEST PUSH1 0x40 MLOAD PUSH1 0x1 PUSH1 0x1 PUSH1 0xA0 SHL SUB SWAP1 SWAP2 AND DUP2 MSTORE PUSH1 0x20 ADD PUSH2 0x88 JUMP JUMPDEST PUSH2 0xE3 PUSH2 0xDE CALLDATASIZE PUSH1 0x4 PUSH2 0x7D6 JUMP JUMPDEST PUSH2 0x315 JUMP JUMPDEST STOP JUMPDEST PUSH2 0xE3 PUSH2 0xF3 CALLDATASIZE PUSH1 0x4 PUSH2 0x748 JUMP JUMPDEST PUSH2 0x4DF JUMP JUMPDEST PUSH2 0xE3 PUSH2 0x106 CALLDATASIZE PUSH1 0x4 PUSH2 0x800 JUMP JUMPDEST PUSH2 0x590 JUMP JUMPDEST PUSH2 0xE3 PUSH2 0x119 CALLDATASIZE PUSH1 0x4 PUSH2 0x800 JUMP JUMPDEST PUSH2 0x64C JUMP JUMPDEST PUSH1 0x0 DUP2 DUP2 MSTORE PUSH1 0x20 DUP2 SWAP1 MSTORE PUSH1 0x40 DUP2 KECCAK256 PUSH1 0x3 DUP2 ADD SLOAD PUSH1 0x60 SWAP2 SWAP1 DUP4 SUB PUSH2 0x174 JUMPI PUSH1 0x0 PUSH1 0x40 MLOAD DUP1 PUSH1 0x40 ADD PUSH1 0x40 MSTORE DUP1 PUSH1 0x14 DUP2 MSTORE PUSH1 0x20 ADD PUSH20 0x10DC9959195B9D1A585B081B9BDD08199BDD5B99 PUSH1 0x62 SHL DUP2 MSTORE POP SWAP3 POP SWAP3 POP POP SWAP2 POP SWAP2 JUMP JUMPDEST PUSH1 0x1 DUP2 ADD SLOAD PUSH1 0x40 MLOAD PUSH4 0x2D33D7D5 PUSH1 0xE0 SHL DUP2 MSTORE PUSH1 0x1 PUSH1 0x1 PUSH1 0xA0 SHL SUB SWAP2 DUP3 AND PUSH1 0x4 DUP3 ADD MSTORE PUSH32 0x0 SWAP1 SWAP2 AND SWAP1 PUSH4 0x2D33D7D5 SWAP1 PUSH1 0x24 ADD PUSH1 0x20 PUSH1 0x40 MLOAD DUP1 DUP4 SUB DUP2 DUP7 GAS STATICCALL ISZERO DUP1 ISZERO PUSH2 0x1E1 JUMPI RETURNDATASIZE PUSH1 0x0 DUP1 RETURNDATACOPY RETURNDATASIZE PUSH1 0x0 REVERT JUMPDEST POP POP POP POP PUSH1 0x40 MLOAD RETURNDATASIZE PUSH1 0x1F NOT PUSH1 0x1F DUP3 ADD AND DUP3 ADD DUP1 PUSH1 0x40 MSTORE POP DUP2 ADD SWAP1 PUSH2 0x205 SWAP2 SWAP1 PUSH2 0x82C JUMP JUMPDEST PUSH2 0x24B JUMPI PUSH1 0x0 PUSH1 0x40 MLOAD DUP1 PUSH1 0x40 ADD PUSH1 0x40 MSTORE DUP1 PUSH1 0x1B DUP2 MSTORE PUSH1 0x20 ADD PUSH32 0x497373756572206E6F206C6F6E67657220726567697374657265640000000000 DUP2 MSTORE POP SWAP3 POP SWAP3 POP POP SWAP2 POP SWAP2 JUMP JUMPDEST PUSH1 0x2 DUP2 ADD SLOAD PUSH1 0x1 PUSH1 0xA0 SHL SWAP1 DIV PUSH1 0xFF AND ISZERO PUSH2 0x296 JUMPI PUSH1 0x0 PUSH1 0x40 MLOAD DUP1 PUSH1 0x40 ADD PUSH1 0x40 MSTORE DUP1 PUSH1 0x12 DUP2 MSTORE PUSH1 0x20 ADD PUSH18 0x10DC9959195B9D1A585B081C995D9BDAD959 PUSH1 0x72 SHL DUP2 MSTORE POP SWAP3 POP SWAP3 POP POP SWAP2 POP SWAP2 JUMP JUMPDEST PUSH1 0x0 DUP5 DUP2 MSTORE PUSH1 0x1 PUSH1 0x20 SWAP1 DUP2 MSTORE PUSH1 0x40 DUP1 DUP4 KECCAK256 CALLER DUP5 MSTORE SWAP1 SWAP2 MSTORE SWAP1 KECCAK256 SLOAD PUSH1 0xFF AND PUSH2 0x2F9 JUMPI PUSH1 0x0 PUSH1 0x40 MLOAD DUP1 PUSH1 0x40 ADD PUSH1 0x40 MSTORE DUP1 PUSH1 0x20 DUP2 MSTORE PUSH1 0x20 ADD PUSH32 0x43616C6C6572206E6F7420696E20766572696669657220616C6C6F776C697374 DUP2 MSTORE POP SWAP3 POP SWAP3 POP POP SWAP2 POP SWAP2 JUMP JUMPDEST PUSH1 0x1 PUSH1 0x40 MLOAD DUP1 PUSH1 0x20 ADD PUSH1 0x40 MSTORE DUP1 PUSH1 0x0 DUP2 MSTORE POP SWAP3 POP SWAP3 POP POP SWAP2 POP SWAP2 JUMP JUMPDEST PUSH1 0x40 MLOAD PUSH4 0x2D33D7D5 PUSH1 0xE0 SHL DUP2 MSTORE CALLER PUSH1 0x4 DUP3 ADD MSTORE PUSH32 0x0 PUSH1 0x1 PUSH1 0x1 PUSH1 0xA0 SHL SUB AND SWAP1 PUSH4 0x2D33D7D5 SWAP1 PUSH1 0x24 ADD PUSH1 0x20 PUSH1 0x40 MLOAD DUP1 DUP4 SUB DUP2 DUP7 GAS STATICCALL ISZERO DUP1 ISZERO PUSH2 0x379 JUMPI RETURNDATASIZE PUSH1 0x0 DUP1 RETURNDATACOPY RETURNDATASIZE PUSH1 0x0 REVERT JUMPDEST POP POP POP POP PUSH1 0x40 MLOAD RETURNDATASIZE PUSH1 0x1F NOT PUSH1 0x1F DUP3 ADD AND DUP3 ADD DUP1 PUSH1 0x40 MSTORE POP DUP2 ADD SWAP1 PUSH2 0x39D SWAP2 SWAP1 PUSH2 0x82C JUMP JUMPDEST PUSH2 0x3BA JUMPI PUSH1 0x40 MLOAD PUSH4 0x6AAF4F1 PUSH1 0xE3 SHL DUP2 MSTORE PUSH1 0x4 ADD PUSH1 0x40 MLOAD DUP1 SWAP2 SUB SWAP1 REVERT JUMPDEST PUSH1 0x1 PUSH1 0x1 PUSH1 0xA0 SHL SUB DUP3 AND PUSH2 0x3E1 JUMPI PUSH1 0x40 MLOAD PUSH4 0xD92E233D PUSH1 0xE0 SHL DUP2 MSTORE PUSH1 0x4 ADD PUSH1 0x40 MLOAD DUP1 SWAP2 SUB SWAP1 REVERT JUMPDEST PUSH1 0x0 DUP2 DUP2 MSTORE PUSH1 0x20 DUP2 SWAP1 MSTORE PUSH1 0x40 SWAP1 KECCAK256 PUSH1 0x3 ADD SLOAD ISZERO PUSH2 0x419 JUMPI PUSH1 0x40 MLOAD PUSH4 0x43EDDA83 PUSH1 0xE1 SHL DUP2 MSTORE PUSH1 0x4 DUP2 ADD DUP3 SWAP1 MSTORE PUSH1 0x24 ADD JUMPDEST PUSH1 0x40 MLOAD DUP1 SWAP2 SUB SWAP1 REVERT JUMPDEST PUSH1 0x40 DUP1 MLOAD PUSH1 0xA0 DUP2 ADD DUP3 MSTORE DUP3 DUP2 MSTORE CALLER PUSH1 0x20 DUP1 DUP4 ADD DUP3 DUP2 MSTORE PUSH1 0x1 PUSH1 0x1 PUSH1 0xA0 SHL SUB DUP8 DUP2 AND DUP6 DUP8 ADD DUP2 DUP2 MSTORE PUSH1 0x0 PUSH1 0x60 DUP9 ADD DUP2 DUP2 MSTORE TIMESTAMP PUSH1 0x80 DUP11 ADD SWAP1 DUP2 MSTORE DUP12 DUP4 MSTORE SWAP7 DUP3 SWAP1 MSTORE DUP10 DUP3 KECCAK256 SWAP9 MLOAD DUP10 SSTORE SWAP5 MLOAD PUSH1 0x1 DUP10 ADD DUP1 SLOAD SWAP2 DUP7 AND PUSH1 0x1 PUSH1 0x1 PUSH1 0xA0 SHL SUB NOT SWAP1 SWAP3 AND SWAP2 SWAP1 SWAP2 OR SWAP1 SSTORE SWAP1 MLOAD PUSH1 0x2 DUP9 ADD DUP1 SLOAD SWAP6 MLOAD ISZERO ISZERO PUSH1 0x1 PUSH1 0xA0 SHL MUL PUSH1 0x1 PUSH1 0x1 PUSH1 0xA8 SHL SUB NOT SWAP1 SWAP7 AND SWAP2 SWAP1 SWAP5 AND OR SWAP4 SWAP1 SWAP4 OR SWAP1 SWAP2 SSTORE SWAP2 MLOAD PUSH1 0x3 SWAP1 SWAP5 ADD SWAP4 SWAP1 SWAP4 SSTORE SWAP3 MLOAD SWAP1 SWAP2 DUP5 SWAP2 PUSH32 0x2CA620382CC7DC0C7E3DEC8AD0CCCC7346C771F0E2130ED0CB76C3152C15B273 SWAP2 SWAP1 LOG4 POP POP JUMP JUMPDEST PUSH1 0x0 PUSH2 0x4EA DUP3 PUSH2 0x70D JUMP JUMPDEST PUSH1 0x1 DUP2 ADD SLOAD SWAP1 SWAP2 POP PUSH1 0x1 PUSH1 0x1 PUSH1 0xA0 SHL SUB AND CALLER EQ PUSH2 0x51A JUMPI PUSH1 0x40 MLOAD PUSH4 0x1950461B PUSH1 0xE2 SHL DUP2 MSTORE PUSH1 0x4 ADD PUSH1 0x40 MLOAD DUP1 SWAP2 SUB SWAP1 REVERT JUMPDEST PUSH1 0x2 DUP2 ADD SLOAD PUSH1 0x1 PUSH1 0xA0 SHL SWAP1 DIV PUSH1 0xFF AND ISZERO PUSH2 0x54A JUMPI PUSH1 0x40 MLOAD PUSH4 0xAAC64F45 PUSH1 0xE0 SHL DUP2 MSTORE PUSH1 0x4 DUP2 ADD DUP4 SWAP1 MSTORE PUSH1 0x24 ADD PUSH2 0x410 JUMP JUMPDEST PUSH1 0x2 DUP2 ADD DUP1 SLOAD PUSH1 0xFF PUSH1 0xA0 SHL NOT AND PUSH1 0x1 PUSH1 0xA0 SHL OR SWAP1 SSTORE PUSH1 0x40 MLOAD CALLER SWAP1 DUP4 SWAP1 PUSH32 0xD3196F598A360C115A1DE20D5A58021203793F1BF1A08EFE55EE14545779606D SWAP1 PUSH1 0x0 SWAP1 LOG3 POP POP JUMP JUMPDEST PUSH1 0x0 PUSH2 0x59B DUP4 PUSH2 0x70D JUMP JUMPDEST PUSH1 0x2 DUP2 ADD SLOAD SWAP1 SWAP2 POP PUSH1 0x1 PUSH1 0x1 PUSH1 0xA0 SHL SUB AND CALLER EQ PUSH2 0x5CB JUMPI PUSH1 0x40 MLOAD PUSH4 0x7575188F PUSH1 0xE0 SHL DUP2 MSTORE PUSH1 0x4 ADD PUSH1 0x40 MLOAD DUP1 SWAP2 SUB SWAP1 REVERT JUMPDEST PUSH1 0x1 PUSH1 0x1 PUSH1 0xA0 SHL SUB DUP3 AND PUSH2 0x5F2 JUMPI PUSH1 0x40 MLOAD PUSH4 0xD92E233D PUSH1 0xE0 SHL DUP2 MSTORE PUSH1 0x4 ADD PUSH1 0x40 MLOAD DUP1 SWAP2 SUB SWAP1 REVERT JUMPDEST PUSH1 0x0 DUP4 DUP2 MSTORE PUSH1 0x1 PUSH1 0x20 SWAP1 DUP2 MSTORE PUSH1 0x40 DUP1 DUP4 KECCAK256 PUSH1 0x1 PUSH1 0x1 PUSH1 0xA0 SHL SUB DUP7 AND DUP1 DUP6 MSTORE SWAP3 MSTORE DUP1 DUP4 KECCAK256 DUP1 SLOAD PUSH1 0xFF NOT AND SWAP1 SSTORE MLOAD SWAP1 SWAP2 CALLER SWAP2 DUP7 SWAP2 PUSH32 0xBB360E8C35477BB8A008C13E72340C278D279A094C999206A0525848E9D654B1 SWAP2 LOG4 POP POP POP JUMP JUMPDEST PUSH1 0x0 PUSH2 0x657 DUP4 PUSH2 0x70D JUMP JUMPDEST PUSH1 0x2 DUP2 ADD SLOAD SWAP1 SWAP2 POP PUSH1 0x1 PUSH1 0x1 PUSH1 0xA0 SHL SUB AND CALLER EQ PUSH2 0x687 JUMPI PUSH1 0x40 MLOAD PUSH4 0x7575188F PUSH1 0xE0 SHL DUP2 MSTORE PUSH1 0x4 ADD PUSH1 0x40 MLOAD DUP1 SWAP2 SUB SWAP1 REVERT JUMPDEST PUSH1 0x1 PUSH1 0x1 PUSH1 0xA0 SHL SUB DUP3 AND PUSH2 0x6AE JUMPI PUSH1 0x40 MLOAD PUSH4 0xD92E233D PUSH1 0xE0 SHL DUP2 MSTORE PUSH1 0x4 ADD PUSH1 0x40 MLOAD DUP1 SWAP2 SUB SWAP1 REVERT JUMPDEST PUSH1 0x0 DUP4 DUP2 MSTORE PUSH1 0x1 PUSH1 0x20 DUP2 DUP2 MSTORE PUSH1 0x40 DUP1 DUP5 KECCAK256 PUSH1 0x1 PUSH1 0x1 PUSH1 0xA0 SHL SUB DUP8 AND DUP1 DUP7 MSTORE SWAP3 MSTORE DUP1 DUP5 KECCAK256 DUP1 SLOAD PUSH1 0xFF NOT AND SWAP1 SWAP4 OR SWAP1 SWAP3 SSTORE SWAP1 MLOAD SWAP1 SWAP2 CALLER SWAP2 DUP7 SWAP2 PUSH32 0xA0708F1B2280D5BE95F9B0D433BE817B3D729CF41C68B8935F8F85C90235BE00 SWAP2 LOG4 POP POP POP JUMP JUMPDEST PUSH1 0x0 DUP2 DUP2 MSTORE PUSH1 0x20 DUP2 SWAP1 MSTORE PUSH1 0x40 DUP2 KECCAK256 PUSH1 0x3 DUP2 ADD SLOAD DUP3 SUB PUSH2 0x742 JUMPI PUSH1 0x40 MLOAD PUSH4 0xD99A0D1 PUSH1 0xE0 SHL DUP2 MSTORE PUSH1 0x4 DUP2 ADD DUP5 SWAP1 MSTORE PUSH1 0x24 ADD PUSH2 0x410 JUMP JUMPDEST SWAP3 SWAP2 POP POP JUMP JUMPDEST PUSH1 0x0 PUSH1 0x20 DUP3 DUP5 SUB SLT ISZERO PUSH2 0x75A JUMPI PUSH1 0x0 DUP1 REVERT JUMPDEST POP CALLDATALOAD SWAP2 SWAP1 POP JUMP JUMPDEST DUP3 ISZERO ISZERO DUP2 MSTORE PUSH1 0x0 PUSH1 0x20 PUSH1 0x40 PUSH1 0x20 DUP5 ADD MSTORE DUP4 MLOAD DUP1 PUSH1 0x40 DUP6 ADD MSTORE PUSH1 0x0 JUMPDEST DUP2 DUP2 LT ISZERO PUSH2 0x798 JUMPI DUP6 DUP2 ADD DUP4 ADD MLOAD DUP6 DUP3 ADD PUSH1 0x60 ADD MSTORE DUP3 ADD PUSH2 0x77C JUMP JUMPDEST POP PUSH1 0x0 PUSH1 0x60 DUP3 DUP7 ADD ADD MSTORE PUSH1 0x60 PUSH1 0x1F NOT PUSH1 0x1F DUP4 ADD AND DUP6 ADD ADD SWAP3 POP POP POP SWAP4 SWAP3 POP POP POP JUMP JUMPDEST DUP1 CALLDATALOAD PUSH1 0x1 PUSH1 0x1 PUSH1 0xA0 SHL SUB DUP2 AND DUP2 EQ PUSH2 0x7D1 JUMPI PUSH1 0x0 DUP1 REVERT JUMPDEST SWAP2 SWAP1 POP JUMP JUMPDEST PUSH1 0x0 DUP1 PUSH1 0x40 DUP4 DUP6 SUB SLT ISZERO PUSH2 0x7E9 JUMPI PUSH1 0x0 DUP1 REVERT JUMPDEST PUSH2 0x7F2 DUP4 PUSH2 0x7BA JUMP JUMPDEST SWAP5 PUSH1 0x20 SWAP4 SWAP1 SWAP4 ADD CALLDATALOAD SWAP4 POP POP POP JUMP JUMPDEST PUSH1 0x0 DUP1 PUSH1 0x40 DUP4 DUP6 SUB SLT ISZERO PUSH2 0x813 JUMPI PUSH1 0x0 DUP1 REVERT JUMPDEST DUP3 CALLDATALOAD SWAP2 POP PUSH2 0x823 PUSH1 0x20 DUP5 ADD PUSH2 0x7BA JUMP JUMPDEST SWAP1 POP SWAP3 POP SWAP3 SWAP1 POP JUMP JUMPDEST PUSH1 0x0 PUSH1 0x20 DUP3 DUP5 SUB SLT ISZERO PUSH2 0x83E JUMPI PUSH1 0x0 DUP1 REVERT JUMPDEST DUP2 MLOAD DUP1 ISZERO ISZERO DUP2 EQ PUSH2 0x84E JUMPI PUSH1 0x0 DUP1 REVERT JUMPDEST SWAP4 SWAP3 POP POP POP JUMP INVALID LOG2 PUSH5 0x6970667358 0x22 SLT KECCAK256 DUP7 PC PUSH1 0x8E 0x4B 0xA6 DUP12 0x2D PUSH11 0x2CBDD6C61560D96F9712FF DUP5 0xAA XOR ADDMOD 0xAC AND BLOBHASH 0xE MCOPY PUSH8 0x84A964736F6C6343 STOP ADDMOD XOR STOP CALLER "
        },
        "methodIdentifiers": {
          "grantVerifierAccess(bytes32,address)": "f4c7659c",
          "issueCredential(address,bytes32)": "b4e5a8de",
          "registry()": "7b103999",
          "revokeCredential(bytes32)": "ca6eec78",
          "revokeVerifierAccess(bytes32,address)": "d9bfff9a",
          "verifyCredential(bytes32)": "4dbf87cc"
        }
      }
    }
  }
}